{
  "contractName": "AIModelMarketplace",
  "abi": [
    {
      "inputs": [],
      "stateMutability": "nonpayable",
      "type": "constructor"
    },
    {
      "anonymous": false,
      "inputs": [
        {
          "indexed": false,
          "internalType": "uint256",
          "name": "modelId",
          "type": "uint256"
        },
        {
          "indexed": false,
          "internalType": "string",
          "name": "name",
          "type": "string"
        },
        {
          "indexed": false,
          "internalType": "uint256",
          "name": "price",
          "type": "uint256"
        },
        {
          "indexed": false,
          "internalType": "address",
          "name": "creator",
          "type": "address"
        }
      ],
      "name": "ModelListed",
      "type": "event"
    },
    {
      "anonymous": false,
      "inputs": [
        {
          "indexed": false,
          "internalType": "uint256",
          "name": "modelId",
          "type": "uint256"
        },
        {
          "indexed": false,
          "internalType": "address",
          "name": "buyer",
          "type": "address"
        }
      ],
      "name": "ModelPurchased",
      "type": "event"
    },
    {
      "anonymous": false,
      "inputs": [
        {
          "indexed": false,
          "internalType": "uint256",
          "name": "modelId",
          "type": "uint256"
        },
        {
          "indexed": false,
          "internalType": "uint8",
          "name": "rating",
          "type": "uint8"
        }
      ],
      "name": "ModelRated",
      "type": "event"
    },
    {
      "inputs": [
        {
          "internalType": "address",
          "name": "",
          "type": "address"
        }
      ],
      "name": "earnings",
      "outputs": [
        {
          "internalType": "uint256",
          "name": "",
          "type": "uint256"
        }
      ],
      "stateMutability": "view",
      "type": "function",
      "constant": true
    },
    {
      "inputs": [
        {
          "internalType": "uint256",
          "name": "",
          "type": "uint256"
        }
      ],
      "name": "models",
      "outputs": [
        {
          "internalType": "string",
          "name": "name",
          "type": "string"
        },
        {
          "internalType": "string",
          "name": "description",
          "type": "string"
        },
        {
          "internalType": "uint256",
          "name": "price",
          "type": "uint256"
        },
        {
          "internalType": "address",
          "name": "creator",
          "type": "address"
        },
        {
          "internalType": "uint256",
          "name": "totalRating",
          "type": "uint256"
        },
        {
          "internalType": "uint256",
          "name": "ratingCount",
          "type": "uint256"
        }
      ],
      "stateMutability": "view",
      "type": "function",
      "constant": true
    },
    {
      "inputs": [
        {
          "internalType": "string",
          "name": "name",
          "type": "string"
        },
        {
          "internalType": "string",
          "name": "description",
          "type": "string"
        },
        {
          "internalType": "uint256",
          "name": "price",
          "type": "uint256"
        }
      ],
      "name": "listModel",
      "outputs": [],
      "stateMutability": "nonpayable",
      "type": "function"
    },
    {
      "inputs": [
        {
          "internalType": "uint256",
          "name": "modelId",
          "type": "uint256"
        }
      ],
      "name": "purchaseModel",
      "outputs": [],
      "stateMutability": "payable",
      "type": "function",
      "payable": true
    },
    {
      "inputs": [
        {
          "internalType": "uint256",
          "name": "modelId",
          "type": "uint256"
        },
        {
          "internalType": "uint8",
          "name": "rating",
          "type": "uint8"
        }
      ],
      "name": "rateModel",
      "outputs": [],
      "stateMutability": "nonpayable",
      "type": "function"
    },
    {
      "inputs": [],
      "name": "withdrawFunds",
      "outputs": [],
      "stateMutability": "nonpayable",
      "type": "function"
    },
    {
      "inputs": [
        {
          "internalType": "uint256",
          "name": "modelId",
          "type": "uint256"
        }
      ],
      "name": "getModelDetails",
      "outputs": [
        {
          "internalType": "string",
          "name": "name",
          "type": "string"
        },
        {
          "internalType": "string",
          "name": "description",
          "type": "string"
        },
        {
          "internalType": "uint256",
          "name": "price",
          "type": "uint256"
        },
        {
          "internalType": "address",
          "name": "creator",
          "type": "address"
        },
        {
          "internalType": "uint256",
          "name": "averageRating",
          "type": "uint256"
        }
      ],
      "stateMutability": "view",
      "type": "function",
      "constant": true
    },
    {
      "inputs": [],
      "name": "totalModels",
      "outputs": [
        {
          "internalType": "uint256",
          "name": "",
          "type": "uint256"
        }
      ],
      "stateMutability": "view",
      "type": "function",
      "constant": true
    }
  ],
  "bytecode": "0x60806040523480156200001157600080fd5b5060006040518060c001604052806040518060400160405280600781526020017f546578744750540000000000000000000000000000000000000000000000000081525081526020016040518060800160405280604f815260200162001c46604f913981526020016716345785d8a0000081526020013373ffffffffffffffffffffffffffffffffffffffff16815260200160008152602001600081525090806001815401808255809150506001900390600052602060002090600602016000909190919091506000820151816000019080519060200190620000f692919062000458565b5060208201518160010190805190602001906200011592919062000458565b506040820151816002015560608201518160030160006101000a81548173ffffffffffffffffffffffffffffffffffffffff021916908373ffffffffffffffffffffffffffffffffffffffff1602179055506080820151816004015560a08201518160050155505060006040518060c001604052806040518060400160405280600a81526020017f496d61676547656e414900000000000000000000000000000000000000000000815250815260200160405180608001604052806041815260200162001c05604191398152602001671bc16d674ec8000081526020013373ffffffffffffffffffffffffffffffffffffffff168152602001600081526020016000815250908060018154018082558091505060019003906000526020600020906006020160009091909190915060008201518160000190805190602001906200026192919062000458565b5060208201518160010190805190602001906200028092919062000458565b506040820151816002015560608201518160030160006101000a81548173ffffffffffffffffffffffffffffffffffffffff021916908373ffffffffffffffffffffffffffffffffffffffff1602179055506080820151816004015560a08201518160050155505060006040518060c001604052806040518060400160405280600d81526020017f566f696365417373697374414900000000000000000000000000000000000000815250815260200160405180606001604052806034815260200162001c9560349139815260200166b1a2bc2ec5000081526020013373ffffffffffffffffffffffffffffffffffffffff16815260200160008152602001600081525090806001815401808255809150506001900390600052602060002090600602016000909190919091506000820151816000019080519060200190620003cb92919062000458565b506020820151816001019080519060200190620003ea92919062000458565b506040820151816002015560608201518160030160006101000a81548173ffffffffffffffffffffffffffffffffffffffff021916908373ffffffffffffffffffffffffffffffffffffffff1602179055506080820151816004015560a0820151816005015550506200056d565b828054620004669062000508565b90600052602060002090601f0160209004810192826200048a5760008555620004d6565b82601f10620004a557805160ff1916838001178555620004d6565b82800160010185558215620004d6579182015b82811115620004d5578251825591602001919060010190620004b8565b5b509050620004e59190620004e9565b5090565b5b8082111562000504576000816000905550600101620004ea565b5090565b600060028204905060018216806200052157607f821691505b602082108114156200053857620005376200053e565b5b50919050565b7f4e487b7100000000000000000000000000000000000000000000000000000000600052602260045260246000fd5b611688806200057d6000396000f3fe60806040526004361061007b5760003560e01c806331fc042f1161004e57806331fc042f14610114578063543fd313146101555780636a030ca914610192578063dc746862146101d45761007b565b8063017d71961461008057806312ee1c0e146100ab5780631c788a9a146100d457806324600fc3146100fd575b600080fd5b34801561008c57600080fd5b506100956101f0565b6040516100a291906111ef565b60405180910390f35b3480156100b757600080fd5b506100d260048036038101906100cd9190610d6f565b6101fc565b005b3480156100e057600080fd5b506100fb60048036038101906100f69190610e17565b6103a3565b005b34801561010957600080fd5b50610112610502565b005b34801561012057600080fd5b5061013b60048036038101906101369190610dee565b610618565b60405161014c95949392919061105f565b60405180910390f35b34801561016157600080fd5b5061017c60048036038101906101779190610d46565b610846565b60405161018991906111ef565b60405180910390f35b34801561019e57600080fd5b506101b960048036038101906101b49190610dee565b61085e565b6040516101cb969594939291906110c0565b60405180910390f35b6101ee60048036038101906101e99190610dee565b6109da565b005b60008080549050905090565b6000811161023f576040517f08c379a0000000000000000000000000000000000000000000000000000000008152600401610236906111af565b60405180910390fd5b60006040518060c001604052808581526020018481526020018381526020013373ffffffffffffffffffffffffffffffffffffffff168152602001600081526020016000815250908060018154018082558091505060019003906000526020600020906006020160009091909190915060008201518160000190805190602001906102cb929190610bfc565b5060208201518160010190805190602001906102e8929190610bfc565b506040820151816002015560608201518160030160006101000a81548173ffffffffffffffffffffffffffffffffffffffff021916908373ffffffffffffffffffffffffffffffffffffffff1602179055506080820151816004015560a0820151816005015550507f4eed6af0d402cb471979373747ee3f09e77a623bff41d503ce96edacb72d858f60016000805490506103839190611406565b8483336040516103969493929190611233565b60405180910390a1505050565b60008054905082106103ea576040517f08c379a00000000000000000000000000000000000000000000000000000000081526004016103e1906111cf565b60405180910390fd5b6000808381548110610425577f4e487b7100000000000000000000000000000000000000000000000000000000600052603260045260246000fd5b9060005260206000209060060201905060018260ff161015801561044d575060058260ff1611155b61048c576040517f08c379a00000000000000000000000000000000000000000000000000000000081526004016104839061116f565b60405180910390fd5b8160ff168160040160008282546104a39190611325565b925050819055508060050160008154809291906104bf906114f7565b91905055507f2949eaecf3f493ad44e848775c4935e28f53f1f7ad5957f2d1cffb9c8929e07683836040516104f592919061127f565b60405180910390a1505050565b6000600160003373ffffffffffffffffffffffffffffffffffffffff1673ffffffffffffffffffffffffffffffffffffffff16815260200190815260200160002054905060008111610589576040517f08c379a00000000000000000000000000000000000000000000000000000000081526004016105809061114f565b60405180910390fd5b6000600160003373ffffffffffffffffffffffffffffffffffffffff1673ffffffffffffffffffffffffffffffffffffffff168152602001908152602001600020819055503373ffffffffffffffffffffffffffffffffffffffff166108fc829081150290604051600060405180830381858888f19350505050158015610614573d6000803e3d6000fd5b5050565b606080600080600080805490508610610666576040517f08c379a000000000000000000000000000000000000000000000000000000000815260040161065d906111cf565b60405180910390fd5b60008087815481106106a1577f4e487b7100000000000000000000000000000000000000000000000000000000600052603260045260246000fd5b9060005260206000209060060201905060008160050154116106c45760006106e5565b8060050154600a82600401546106da91906113ac565b6106e4919061137b565b5b9150806000018160010182600201548360030160009054906101000a900473ffffffffffffffffffffffffffffffffffffffff1685848054610726906114c5565b80601f0160208091040260200160405190810160405280929190818152602001828054610752906114c5565b801561079f5780601f106107745761010080835404028352916020019161079f565b820191906000526020600020905b81548152906001019060200180831161078257829003601f168201915b505050505094508380546107b2906114c5565b80601f01602080910402602001604051908101604052809291908181526020018280546107de906114c5565b801561082b5780601f106108005761010080835404028352916020019161082b565b820191906000526020600020905b81548152906001019060200180831161080e57829003601f168201915b50505050509350955095509550955095505091939590929450565b60016020528060005260406000206000915090505481565b6000818154811061086e57600080fd5b9060005260206000209060060201600091509050806000018054610891906114c5565b80601f01602080910402602001604051908101604052809291908181526020018280546108bd906114c5565b801561090a5780601f106108df5761010080835404028352916020019161090a565b820191906000526020600020905b8154815290600101906020018083116108ed57829003601f168201915b50505050509080600101805461091f906114c5565b80601f016020809104026020016040519081016040528092919081815260200182805461094b906114c5565b80156109985780601f1061096d57610100808354040283529160200191610998565b820191906000526020600020905b81548152906001019060200180831161097b57829003601f168201915b5050505050908060020154908060030160009054906101000a900473ffffffffffffffffffffffffffffffffffffffff16908060040154908060050154905086565b6000805490508110610a21576040517f08c379a0000000000000000000000000000000000000000000000000000000008152600401610a18906111cf565b60405180910390fd5b6000808281548110610a5c577f4e487b7100000000000000000000000000000000000000000000000000000000600052603260045260246000fd5b9060005260206000209060060201905080600201543414610ab2576040517f08c379a0000000000000000000000000000000000000000000000000000000008152600401610aa99061112f565b60405180910390fd5b3373ffffffffffffffffffffffffffffffffffffffff168160030160009054906101000a900473ffffffffffffffffffffffffffffffffffffffff1673ffffffffffffffffffffffffffffffffffffffff161415610b45576040517f08c379a0000000000000000000000000000000000000000000000000000000008152600401610b3c9061118f565b60405180910390fd5b34600160008360030160009054906101000a900473ffffffffffffffffffffffffffffffffffffffff1673ffffffffffffffffffffffffffffffffffffffff1673ffffffffffffffffffffffffffffffffffffffff1681526020019081526020016000206000828254610bb89190611325565b925050819055507fc8581808129c51c0416692a5ea1b58e080ae8f21e384eefe2f2dc85d231d12ba8233604051610bf092919061120a565b60405180910390a15050565b828054610c08906114c5565b90600052602060002090601f016020900481019282610c2a5760008555610c71565b82601f10610c4357805160ff1916838001178555610c71565b82800160010185558215610c71579182015b82811115610c70578251825591602001919060010190610c55565b5b509050610c7e9190610c82565b5090565b5b80821115610c9b576000816000905550600101610c83565b5090565b6000610cb2610cad846112d9565b6112a8565b905082815260208101848484011115610cca57600080fd5b610cd5848285611483565b509392505050565b600081359050610cec8161160d565b92915050565b600082601f830112610d0357600080fd5b8135610d13848260208601610c9f565b91505092915050565b600081359050610d2b81611624565b92915050565b600081359050610d408161163b565b92915050565b600060208284031215610d5857600080fd5b6000610d6684828501610cdd565b91505092915050565b600080600060608486031215610d8457600080fd5b600084013567ffffffffffffffff811115610d9e57600080fd5b610daa86828701610cf2565b935050602084013567ffffffffffffffff811115610dc757600080fd5b610dd386828701610cf2565b9250506040610de486828701610d1c565b9150509250925092565b600060208284031215610e0057600080fd5b6000610e0e84828501610d1c565b91505092915050565b60008060408385031215610e2a57600080fd5b6000610e3885828601610d1c565b9250506020610e4985828601610d31565b9150509250929050565b610e5c8161143a565b82525050565b6000610e6d82611309565b610e778185611314565b9350610e87818560208601611492565b610e90816115fc565b840191505092915050565b6000610ea8601983611314565b91507f496e636f7272656374207061796d656e7420616d6f756e742e000000000000006000830152602082019050919050565b6000610ee8601583611314565b91507f4e6f2066756e647320746f2077697468647261772e00000000000000000000006000830152602082019050919050565b6000610f28601f83611314565b91507f526174696e67206d757374206265206265747765656e203120616e6420352e006000830152602082019050919050565b6000610f68602883611314565b91507f43726561746f722063616e6e6f74207075726368617365207468656972206f7760008301527f6e206d6f64656c2e0000000000000000000000000000000000000000000000006020830152604082019050919050565b6000610fce602083611314565b91507f5072696365206d7573742062652067726561746572207468616e207a65726f2e6000830152602082019050919050565b600061100e601583611314565b91507f4d6f64656c20646f6573206e6f742065786973742e00000000000000000000006000830152602082019050919050565b61104a8161146c565b82525050565b61105981611476565b82525050565b600060a08201905081810360008301526110798188610e62565b9050818103602083015261108d8187610e62565b905061109c6040830186611041565b6110a96060830185610e53565b6110b66080830184611041565b9695505050505050565b600060c08201905081810360008301526110da8189610e62565b905081810360208301526110ee8188610e62565b90506110fd6040830187611041565b61110a6060830186610e53565b6111176080830185611041565b61112460a0830184611041565b979650505050505050565b6000602082019050818103600083015261114881610e9b565b9050919050565b6000602082019050818103600083015261116881610edb565b9050919050565b6000602082019050818103600083015261118881610f1b565b9050919050565b600060208201905081810360008301526111a881610f5b565b9050919050565b600060208201905081810360008301526111c881610fc1565b9050919050565b600060208201905081810360008301526111e881611001565b9050919050565b60006020820190506112046000830184611041565b92915050565b600060408201905061121f6000830185611041565b61122c6020830184610e53565b9392505050565b60006080820190506112486000830187611041565b818103602083015261125a8186610e62565b90506112696040830185611041565b6112766060830184610e53565b95945050505050565b60006040820190506112946000830185611041565b6112a16020830184611050565b9392505050565b6000604051905081810181811067ffffffffffffffff821117156112cf576112ce6115cd565b5b8060405250919050565b600067ffffffffffffffff8211156112f4576112f36115cd565b5b601f19601f8301169050602081019050919050565b600081519050919050565b600082825260208201905092915050565b60006113308261146c565b915061133b8361146c565b9250827fffffffffffffffffffffffffffffffffffffffffffffffffffffffffffffffff038211156113705761136f611540565b5b828201905092915050565b60006113868261146c565b91506113918361146c565b9250826113a1576113a061156f565b5b828204905092915050565b60006113b78261146c565b91506113c28361146c565b9250817fffffffffffffffffffffffffffffffffffffffffffffffffffffffffffffffff04831182151516156113fb576113fa611540565b5b828202905092915050565b60006114118261146c565b915061141c8361146c565b92508282101561142f5761142e611540565b5b828203905092915050565b60006114458261144c565b9050919050565b600073ffffffffffffffffffffffffffffffffffffffff82169050919050565b6000819050919050565b600060ff82169050919050565b82818337600083830152505050565b60005b838110156114b0578082015181840152602081019050611495565b838111156114bf576000848401525b50505050565b600060028204905060018216806114dd57607f821691505b602082108114156114f1576114f061159e565b5b50919050565b60006115028261146c565b91507fffffffffffffffffffffffffffffffffffffffffffffffffffffffffffffffff82141561153557611534611540565b5b600182019050919050565b7f4e487b7100000000000000000000000000000000000000000000000000000000600052601160045260246000fd5b7f4e487b7100000000000000000000000000000000000000000000000000000000600052601260045260246000fd5b7f4e487b7100000000000000000000000000000000000000000000000000000000600052602260045260246000fd5b7f4e487b7100000000000000000000000000000000000000000000000000000000600052604160045260246000fd5b6000601f19601f8301169050919050565b6116168161143a565b811461162157600080fd5b50565b61162d8161146c565b811461163857600080fd5b50565b61164481611476565b811461164f57600080fd5b5056fea26469706673582212209b8a0ec73f38e14c902c9fe35c2b7729a83988ca1808f3c212ffe7d6e458407464736f6c63430008000033414920746861742067656e65726174657320696d616765732e204c6f72656d20697073756d20646f6c6f722073697420616d657420636f6e73656374657475722e4974206973204149206c696b6520436861744750542e204c6f72656d20697073756d20646f6c6f722073697420616d657420636f6e7365637465747572206164697069736963696e6720656c69742e414920666f7220766f69636520617373697374616e63652e204c6f72656d20697073756d20646f6c6f722073697420616d65742e",
  "immutableReferences": {},
  "source": "// SPDX-License-Identifier: MIT\r\npragma solidity ^0.8.0;\r\n\r\ncontract AIModelMarketplace {\r\n    struct Model {\r\n        string name;\r\n        string description;\r\n        uint256 price;\r\n        address creator;\r\n        uint256 totalRating;\r\n        uint256 ratingCount;\r\n    }\r\n\r\n    Model[] public models;\r\n    mapping(address => uint256) public earnings;\r\n\r\n    constructor() {\r\n        models.push(Model(\"TextGPT\", \"It is AI like ChatGPT. Lorem ipsum dolor sit amet consectetur adipisicing elit.\", 1.6 ether, msg.sender, 0, 0));\r\n        models.push(Model(\"ImageGenAI\", \"AI that generates images. Lorem ipsum dolor sit amet consectetur.\", 2 ether, msg.sender, 0, 0));\r\n        models.push(Model(\"VoiceAssistAI\", \"AI for voice assistance. Lorem ipsum dolor sit amet.\", 0.05 ether, msg.sender, 0, 0));\r\n    }\r\n\r\n    event ModelListed(uint256 modelId, string name, uint256 price, address creator);\r\n    event ModelPurchased(uint256 modelId, address buyer);\r\n    event ModelRated(uint256 modelId, uint8 rating);\r\n\r\n    function listModel(string memory name, string memory description, uint256 price) public {\r\n        require(price > 0, \"Price must be greater than zero.\");\r\n\r\n        models.push(Model({\r\n            name: name,\r\n            description: description,\r\n            price: price,\r\n            creator: msg.sender,\r\n            totalRating: 0,\r\n            ratingCount: 0\r\n        }));\r\n\r\n        emit ModelListed(models.length - 1, name, price, msg.sender);\r\n    }\r\n\r\n    function purchaseModel(uint256 modelId) public payable {\r\n        require(modelId < models.length, \"Model does not exist.\");\r\n        Model storage model = models[modelId];\r\n        require(msg.value == model.price, \"Incorrect payment amount.\");\r\n        require(model.creator != msg.sender, \"Creator cannot purchase their own model.\");\r\n\r\n        earnings[model.creator] += msg.value;\r\n\r\n        emit ModelPurchased(modelId, msg.sender);\r\n    }\r\n\r\n    function rateModel(uint256 modelId, uint8 rating) public {\r\n        require(modelId < models.length, \"Model does not exist.\");\r\n        Model storage model = models[modelId];\r\n        require(rating >= 1 && rating <= 5, \"Rating must be between 1 and 5.\");\r\n\r\n        model.totalRating += rating;\r\n        model.ratingCount++;\r\n\r\n        emit ModelRated(modelId, rating);\r\n    }\r\n\r\n    function withdrawFunds() public {\r\n        uint256 amount = earnings[msg.sender];\r\n        require(amount > 0, \"No funds to withdraw.\");\r\n\r\n        earnings[msg.sender] = 0;\r\n        payable(msg.sender).transfer(amount);\r\n    }\r\n\r\n    function getModelDetails(uint256 modelId) public view returns (string memory name, string memory description, uint256 price, address creator, uint256 averageRating) {\r\n        require(modelId < models.length, \"Model does not exist.\");\r\n\r\n        Model storage model = models[modelId];\r\n        averageRating = model.ratingCount > 0 ? (model.totalRating * 10) / model.ratingCount : 0;\r\n\r\n        return (model.name, model.description, model.price, model.creator, averageRating);\r\n    }\r\n\r\n    function totalModels() public view returns (uint256) {\r\n        return models.length;\r\n    }\r\n}\r\n",
  "sourcePath": "D:\\Files\\AI-Model-Marketplace-dApp\\contracts\\AIModelMarketplace.sol",
  "compiler": {
    "name": "solc",
    "version": "0.8.0+commit.c7dfd78e.Emscripten.clang"
  },
  "schemaVersion": "3.4.16",
  "updatedAt": "2024-10-02T14:33:20.002Z",
  "networkType": "ethereum",
  "devdoc": {
    "kind": "dev",
    "methods": {},
    "version": 1
  },
  "userdoc": {
    "kind": "user",
    "methods": {},
    "version": 1
  }
}